{"abi":[{"type":"constructor","inputs":[{"name":"superAdmin","type":"address","internalType":"address"}],"stateMutability":"nonpayable"},{"type":"function","name":"ADMIN_ROLE","inputs":[],"outputs":[{"name":"","type":"bytes32","internalType":"bytes32"}],"stateMutability":"view"},{"type":"function","name":"AUDITOR_ROLE","inputs":[],"outputs":[{"name":"","type":"bytes32","internalType":"bytes32"}],"stateMutability":"view"},{"type":"function","name":"DEFAULT_ADMIN_ROLE","inputs":[],"outputs":[{"name":"","type":"bytes32","internalType":"bytes32"}],"stateMutability":"view"},{"type":"function","name":"INVESTOR_ROLE","inputs":[],"outputs":[{"name":"","type":"bytes32","internalType":"bytes32"}],"stateMutability":"view"},{"type":"function","name":"REALTOR_ROLE","inputs":[],"outputs":[{"name":"","type":"bytes32","internalType":"bytes32"}],"stateMutability":"view"},{"type":"function","name":"TENANT_ROLE","inputs":[],"outputs":[{"name":"","type":"bytes32","internalType":"bytes32"}],"stateMutability":"view"},{"type":"function","name":"blacklist","inputs":[{"name":"user","type":"address","internalType":"address"},{"name":"status","type":"bool","internalType":"bool"}],"outputs":[],"stateMutability":"nonpayable"},{"type":"function","name":"getRoleAdmin","inputs":[{"name":"role","type":"bytes32","internalType":"bytes32"}],"outputs":[{"name":"","type":"bytes32","internalType":"bytes32"}],"stateMutability":"view"},{"type":"function","name":"grantPropertyPermission","inputs":[{"name":"propertyId","type":"uint256","internalType":"uint256"},{"name":"user","type":"address","internalType":"address"}],"outputs":[],"stateMutability":"nonpayable"},{"type":"function","name":"grantRole","inputs":[{"name":"role","type":"bytes32","internalType":"bytes32"},{"name":"account","type":"address","internalType":"address"}],"outputs":[],"stateMutability":"nonpayable"},{"type":"function","name":"hasAccessToProperty","inputs":[{"name":"propertyId","type":"uint256","internalType":"uint256"},{"name":"user","type":"address","internalType":"address"}],"outputs":[{"name":"","type":"bool","internalType":"bool"}],"stateMutability":"view"},{"type":"function","name":"hasRole","inputs":[{"name":"role","type":"bytes32","internalType":"bytes32"},{"name":"account","type":"address","internalType":"address"}],"outputs":[{"name":"","type":"bool","internalType":"bool"}],"stateMutability":"view"},{"type":"function","name":"hasRoleAndKYC","inputs":[{"name":"user","type":"address","internalType":"address"},{"name":"role","type":"bytes32","internalType":"bytes32"}],"outputs":[{"name":"","type":"bool","internalType":"bool"}],"stateMutability":"view"},{"type":"function","name":"isBlacklisted","inputs":[{"name":"","type":"address","internalType":"address"}],"outputs":[{"name":"","type":"bool","internalType":"bool"}],"stateMutability":"view"},{"type":"function","name":"isKYCVerified","inputs":[{"name":"","type":"address","internalType":"address"}],"outputs":[{"name":"","type":"bool","internalType":"bool"}],"stateMutability":"view"},{"type":"function","name":"isWhitelistedIP","inputs":[{"name":"","type":"bytes32","internalType":"bytes32"}],"outputs":[{"name":"","type":"bool","internalType":"bool"}],"stateMutability":"view"},{"type":"function","name":"pause","inputs":[],"outputs":[],"stateMutability":"nonpayable"},{"type":"function","name":"paused","inputs":[],"outputs":[{"name":"","type":"bool","internalType":"bool"}],"stateMutability":"view"},{"type":"function","name":"propertyPermissions","inputs":[{"name":"","type":"uint256","internalType":"uint256"},{"name":"","type":"address","internalType":"address"}],"outputs":[{"name":"","type":"bool","internalType":"bool"}],"stateMutability":"view"},{"type":"function","name":"renounceRole","inputs":[{"name":"role","type":"bytes32","internalType":"bytes32"},{"name":"callerConfirmation","type":"address","internalType":"address"}],"outputs":[],"stateMutability":"nonpayable"},{"type":"function","name":"revokePropertyPermission","inputs":[{"name":"propertyId","type":"uint256","internalType":"uint256"},{"name":"user","type":"address","internalType":"address"}],"outputs":[],"stateMutability":"nonpayable"},{"type":"function","name":"revokeRole","inputs":[{"name":"role","type":"bytes32","internalType":"bytes32"},{"name":"account","type":"address","internalType":"address"}],"outputs":[],"stateMutability":"nonpayable"},{"type":"function","name":"roleExpiries","inputs":[{"name":"","type":"address","internalType":"address"},{"name":"","type":"bytes32","internalType":"bytes32"}],"outputs":[{"name":"expiryTimestamp","type":"uint256","internalType":"uint256"},{"name":"enabled","type":"bool","internalType":"bool"}],"stateMutability":"view"},{"type":"function","name":"roleValid","inputs":[{"name":"user","type":"address","internalType":"address"},{"name":"role","type":"bytes32","internalType":"bytes32"}],"outputs":[{"name":"","type":"bool","internalType":"bool"}],"stateMutability":"view"},{"type":"function","name":"setKYC","inputs":[{"name":"user","type":"address","internalType":"address"},{"name":"status","type":"bool","internalType":"bool"}],"outputs":[],"stateMutability":"nonpayable"},{"type":"function","name":"setTimeLimitedRole","inputs":[{"name":"user","type":"address","internalType":"address"},{"name":"role","type":"bytes32","internalType":"bytes32"},{"name":"duration","type":"uint256","internalType":"uint256"}],"outputs":[],"stateMutability":"nonpayable"},{"type":"function","name":"supportsInterface","inputs":[{"name":"interfaceId","type":"bytes4","internalType":"bytes4"}],"outputs":[{"name":"","type":"bool","internalType":"bool"}],"stateMutability":"view"},{"type":"function","name":"unpause","inputs":[],"outputs":[],"stateMutability":"nonpayable"},{"type":"function","name":"whitelistIP","inputs":[{"name":"ipHash","type":"bytes32","internalType":"bytes32"},{"name":"status","type":"bool","internalType":"bool"}],"outputs":[],"stateMutability":"nonpayable"},{"type":"event","name":"Paused","inputs":[{"name":"account","type":"address","indexed":false,"internalType":"address"}],"anonymous":false},{"type":"event","name":"RoleAdminChanged","inputs":[{"name":"role","type":"bytes32","indexed":true,"internalType":"bytes32"},{"name":"previousAdminRole","type":"bytes32","indexed":true,"internalType":"bytes32"},{"name":"newAdminRole","type":"bytes32","indexed":true,"internalType":"bytes32"}],"anonymous":false},{"type":"event","name":"RoleGranted","inputs":[{"name":"role","type":"bytes32","indexed":true,"internalType":"bytes32"},{"name":"account","type":"address","indexed":true,"internalType":"address"},{"name":"sender","type":"address","indexed":true,"internalType":"address"}],"anonymous":false},{"type":"event","name":"RoleRevoked","inputs":[{"name":"role","type":"bytes32","indexed":true,"internalType":"bytes32"},{"name":"account","type":"address","indexed":true,"internalType":"address"},{"name":"sender","type":"address","indexed":true,"internalType":"address"}],"anonymous":false},{"type":"event","name":"Unpaused","inputs":[{"name":"account","type":"address","indexed":false,"internalType":"address"}],"anonymous":false},{"type":"error","name":"AccessControlBadConfirmation","inputs":[]},{"type":"error","name":"AccessControlUnauthorizedAccount","inputs":[{"name":"account","type":"address","internalType":"address"},{"name":"neededRole","type":"bytes32","internalType":"bytes32"}]},{"type":"error","name":"EnforcedPause","inputs":[]},{"type":"error","name":"ExpectedPause","inputs":[]}],"bytecode":{"object":"0x60803461007257601f610e1d38819003918201601f19168301916001600160401b038311848410176100765780849260209460405283398101031261007257516001600160a01b0381168103610072578061005c6100629261008a565b506100f6565b50604051610c4890816101958239f35b5f80fd5b634e487b7160e01b5f52604160045260245ffd5b6001600160a01b03165f8181525f80516020610dfd833981519152602052604090205460ff166100f1575f8181525f80516020610dfd83398151915260205260408120805460ff191660011790553391905f80516020610ddd8339815191528180a4600190565b505f90565b6001600160a01b03165f8181527f7d7ffb7a348e1c6a02869081a26547b49160dd3df72d1d75a570eb9b698292ec60205260409020547fa49807205ce4d355092ef5a8a18f56e8913cf4a201fbe287825b095693c21775919060ff1661018e57815f525f60205260405f20815f5260205260405f20600160ff1982541617905533915f80516020610ddd8339815191525f80a4600190565b50505f9056fe6080604090808252600480361015610015575f80fd5b5f3560e01c91826301ffc9a714610923575081630669ce79146108d557816312815d7a146108a4578163248a9ca31461087b5781632f2ff15d1461085857816331e786cf1461082d57816336568abe146107e95781633f4ba83a14610782578163404e5129146107315781634c6b0f18146106e05781635123bacc1461063a578163543ceaed146105a457816354b7636e146105685781635c975abb146105455781636b574cb11461050b5781636e1d616e146104d157816375b238fc1461049757816376082a5e1461045d5781637efa9bc3146103ad5781638456cb591461034457816391d14854146103015781639875ea2b146102c7578163a217fddf146102ad578163b91590b514610269578163bfdf29bf14610269578163d547741f14610230578163dc442f10146101e1578163f15655601461019e575063fe575a871461015f575f80fd5b3461019a57602036600319011261019a576020906001600160a01b0361018361098b565b165f526003825260ff815f20541690519015158152f35b5f80fd5b90503461019a578160031936011261019a576101df916101bc6109a1565b916101c5610aa8565b80355f526020525f209060ff801983541691151516179055565b005b823461019a578060031936011261019a576001600160a01b0361020261098b565b165f526005602052805f206024355f52602052805f2060ff6001825492015416825191825215156020820152f35b823461019a578060031936011261019a576101df91356102646001610253610975565b93835f525f6020525f200154610b03565b610ba0565b823461019a578060031936011261019a57602091610285610975565b90355f5260068352815f209060018060a01b03165f52825260ff815f20541690519015158152f35b823461019a575f36600319011261019a57602090515f8152f35b823461019a575f36600319011261019a57602090517f183424541d14cd9bd5d5e4d92b46028be6700d27ec9e3ecc10cbe3e71dea50a58152f35b823461019a578060031936011261019a5760209161031d610975565b90355f525f8352815f209060018060a01b03165f52825260ff815f20541690519015158152f35b823461019a575f36600319011261019a5761035d610aa8565b6001549160ff831661039f577f62e78cea01bee320cd4e420270b5ea74000d11b0c9f74754ebdbfc544b05a25860208360018660ff19161760015551338152a1005b905163d93c066560e01b8152fd5b90503461019a57606036600319011261019a576103c861098b565b90602435906103d5610aa8565b60443542019081421161044a575060016101df94610438610445936103f86109b0565b9081528360208201818152818060a01b0389165f526005602052845f20885f52602052845f209251835551151591019060ff801983541691151516179055565b5f6020525f200154610b03565b610b24565b601190634e487b7160e01b5f525260245ffd5b823461019a575f36600319011261019a57602090517fb165298935924f540e4181c03493a5d686c54a0aaeb3f6216de85b7ffbba77388152f35b823461019a575f36600319011261019a57602090517fa49807205ce4d355092ef5a8a18f56e8913cf4a201fbe287825b095693c217758152f35b823461019a575f36600319011261019a57602090517f59a1c48e5837ad7a7f3dcedcbe129bf3249ec4fbf651fd4f5e2600ead39fe2f58152f35b823461019a575f36600319011261019a57602090517ff962acfbab8ce8b5063e7eb2e741d447f857c50333efedc97d59cbe8bac576e18152f35b823461019a575f36600319011261019a5760209060ff6001541690519015158152f35b823461019a57602036600319011261019a576020906001600160a01b0361058d61098b565b165f526002825260ff815f20541690519015158152f35b823461019a578060031936011261019a576020906105c061098b565b6024355f8181528085528381206001600160a01b038416825285528390205460ff16929183610627575b83610613575b83610600575b5050519015158152f35b61060b9293506109e4565b9083806105f6565b92506003845260ff825f20541615926105f0565b92506002845260ff825f205416926105ea565b823461019a578060031936011261019a5761065361098b565b9061065c6109a1565b917f59a1c48e5837ad7a7f3dcedcbe129bf3249ec4fbf651fd4f5e2600ead39fe2f593845f525f602052825f20335f5260205260ff835f205416156106c357506101df935060018060a01b03165f5260026020525f209060ff801983541691151516179055565b6044908584519163e2517d3f60e01b835233908301526024820152fd5b90503461019a578160031936011261019a576106fa610975565b90610703610a2f565b355f908152600660209081528382206001600160a01b0390931682529190915220805460ff19166001179055005b823461019a578060031936011261019a576101df9061074e61098b565b906107576109a1565b91610760610aa8565b60018060a01b03165f5260036020525f209060ff801983541691151516179055565b823461019a575f36600319011261019a5761079b610aa8565b6001549160ff8316156107db577f5db9ee0a495bf2e6ff9c91a7834c1ba4fdd244a5e8aa4e537bd38aeae4b073aa6020838560ff191660015551338152a1005b9051638dfc202b60e01b8152fd5b823461019a578060031936011261019a57610802610975565b90336001600160a01b0383160361081e57506101df9135610ba0565b5163334bd91960e11b81529050fd5b823461019a57602036600319011261019a5781602092355f52825260ff815f20541690519015158152f35b823461019a578060031936011261019a576101df91356104456001610253610975565b823461019a57602036600319011261019a57602091355f525f82526001815f2001549051908152f35b823461019a578060031936011261019a576020906108cc6108c361098b565b602435906109e4565b90519015158152f35b90503461019a578160031936011261019a576108ef610975565b906108f8610a2f565b355f908152600660209081528382206001600160a01b0390931682529190915220805460ff19169055005b903461019a57602036600319011261019a57359063ffffffff60e01b821680920361019a57602091637965db0b60e01b8114908115610964575b5015158152f35b6301ffc9a760e01b1490508361095d565b602435906001600160a01b038216820361019a57565b600435906001600160a01b038216820361019a57565b60243590811515820361019a57565b604051906040820182811067ffffffffffffffff8211176109d057604052565b634e487b7160e01b5f52604160045260245ffd5b60018060a01b03165f52600560205260405f20905f5260205260405f20610a096109b0565b60ff6001835493848452015416159060208215910152610a295742111590565b50600190565b335f9081527fd3bd826235847243d71533afdf6528969dc0755c13a1ca32f80ba2e4b2da7a4860205260409020547ff962acfbab8ce8b5063e7eb2e741d447f857c50333efedc97d59cbe8bac576e19060ff1615610a8a5750565b6044906040519063e2517d3f60e01b82523360048301526024820152fd5b335f9081527f7d7ffb7a348e1c6a02869081a26547b49160dd3df72d1d75a570eb9b698292ec60205260409020547fa49807205ce4d355092ef5a8a18f56e8913cf4a201fbe287825b095693c217759060ff1615610a8a5750565b805f525f60205260405f20335f5260205260ff60405f20541615610a8a5750565b90815f525f60205260405f209060018060a01b031690815f5260205260ff60405f205416155f14610b9a57815f525f60205260405f20815f5260205260405f20600160ff1982541617905533917f2f8788117e7eff1d82e926ec794901d17c78024a50270940304540a733656f0d5f80a4600190565b50505f90565b90815f525f60205260405f209060018060a01b031690815f5260205260ff60405f2054165f14610b9a57815f525f60205260405f20815f5260205260405f2060ff19815416905533917ff6391f5c32d9c69d2a47ea670b442974b53935d1edc7fd64eb21e047a839171b5f80a460019056fea2646970667358221220f504400193b8d2f49361e410b0177d588753af71fa4e4aad73839fa4bed977dd64736f6c634300081800332f8788117e7eff1d82e926ec794901d17c78024a50270940304540a733656f0dad3228b676f7d3cd4284a5443f17f1962b36e491b30a40b2405849e597ba5fb5","linkReferences":{}},"methodIdentifiers":{"ADMIN_ROLE()":"75b238fc","AUDITOR_ROLE()":"6e1d616e","DEFAULT_ADMIN_ROLE()":"a217fddf","INVESTOR_ROLE()":"76082a5e","REALTOR_ROLE()":"6b574cb1","TENANT_ROLE()":"9875ea2b","blacklist(address,bool)":"404e5129","getRoleAdmin(bytes32)":"248a9ca3","grantPropertyPermission(uint256,address)":"4c6b0f18","grantRole(bytes32,address)":"2f2ff15d","hasAccessToProperty(uint256,address)":"bfdf29bf","hasRole(bytes32,address)":"91d14854","hasRoleAndKYC(address,bytes32)":"543ceaed","isBlacklisted(address)":"fe575a87","isKYCVerified(address)":"54b7636e","isWhitelistedIP(bytes32)":"31e786cf","pause()":"8456cb59","paused()":"5c975abb","propertyPermissions(uint256,address)":"b91590b5","renounceRole(bytes32,address)":"36568abe","revokePropertyPermission(uint256,address)":"0669ce79","revokeRole(bytes32,address)":"d547741f","roleExpiries(address,bytes32)":"dc442f10","roleValid(address,bytes32)":"12815d7a","setKYC(address,bool)":"5123bacc","setTimeLimitedRole(address,bytes32,uint256)":"7efa9bc3","supportsInterface(bytes4)":"01ffc9a7","unpause()":"3f4ba83a","whitelistIP(bytes32,bool)":"f1565560"},"id":41}