{"abi":[{"type":"constructor","inputs":[{"name":"admin","type":"address","internalType":"address"},{"name":"_tokenFactory","type":"address","internalType":"address"},{"name":"_listingFee","type":"uint256","internalType":"uint256"},{"name":"_feeRecipient","type":"address","internalType":"address"},{"name":"_priceFeed","type":"address","internalType":"address"},{"name":"_kycManager","type":"address","internalType":"address"}],"stateMutability":"nonpayable"},{"type":"function","name":"DEFAULT_ADMIN_ROLE","inputs":[],"outputs":[{"name":"","type":"bytes32","internalType":"bytes32"}],"stateMutability":"view"},{"type":"function","name":"REALTOR_ROLE","inputs":[],"outputs":[{"name":"","type":"bytes32","internalType":"bytes32"}],"stateMutability":"view"},{"type":"function","name":"calculateTokenSupply","inputs":[{"name":"totalValueUSD","type":"uint256","internalType":"uint256"},{"name":"pricePerTokenUSD","type":"uint256","internalType":"uint256"}],"outputs":[{"name":"","type":"uint256","internalType":"uint256"}],"stateMutability":"pure"},{"type":"function","name":"deactivateProperty","inputs":[{"name":"propertyId","type":"uint256","internalType":"uint256"}],"outputs":[],"stateMutability":"nonpayable"},{"type":"function","name":"feeRecipient","inputs":[],"outputs":[{"name":"","type":"address","internalType":"address"}],"stateMutability":"view"},{"type":"function","name":"getAllProperties","inputs":[],"outputs":[{"name":"","type":"tuple[]","internalType":"struct RegistryStorage.Property[]","components":[{"name":"id","type":"uint256","internalType":"uint256"},{"name":"name","type":"string","internalType":"string"},{"name":"location","type":"string","internalType":"string"},{"name":"totalValue","type":"uint256","internalType":"uint256"},{"name":"tokenAddress","type":"address","internalType":"address"},{"name":"realtor","type":"address","internalType":"address"},{"name":"description","type":"string","internalType":"string"},{"name":"isActive","type":"bool","internalType":"bool"},{"name":"metadataURI","type":"string","internalType":"string"},{"name":"listedFee","type":"uint256","internalType":"uint256"},{"name":"pricePerToken","type":"uint256","internalType":"uint256"},{"name":"timestamp","type":"uint256","internalType":"uint256"},{"name":"realtorPropertyCount","type":"uint256","internalType":"uint256"},{"name":"tokenSupply","type":"uint256","internalType":"uint256"}]}],"stateMutability":"view"},{"type":"function","name":"getPropertiesByRealtor","inputs":[{"name":"_realtor","type":"address","internalType":"address"}],"outputs":[{"name":"","type":"uint256[]","internalType":"uint256[]"}],"stateMutability":"view"},{"type":"function","name":"getProperty","inputs":[{"name":"propertyId","type":"uint256","internalType":"uint256"}],"outputs":[{"name":"","type":"tuple","internalType":"struct RegistryStorage.Property","components":[{"name":"id","type":"uint256","internalType":"uint256"},{"name":"name","type":"string","internalType":"string"},{"name":"location","type":"string","internalType":"string"},{"name":"totalValue","type":"uint256","internalType":"uint256"},{"name":"tokenAddress","type":"address","internalType":"address"},{"name":"realtor","type":"address","internalType":"address"},{"name":"description","type":"string","internalType":"string"},{"name":"isActive","type":"bool","internalType":"bool"},{"name":"metadataURI","type":"string","internalType":"string"},{"name":"listedFee","type":"uint256","internalType":"uint256"},{"name":"pricePerToken","type":"uint256","internalType":"uint256"},{"name":"timestamp","type":"uint256","internalType":"uint256"},{"name":"realtorPropertyCount","type":"uint256","internalType":"uint256"},{"name":"tokenSupply","type":"uint256","internalType":"uint256"}]}],"stateMutability":"view"},{"type":"function","name":"getRoleAdmin","inputs":[{"name":"role","type":"bytes32","internalType":"bytes32"}],"outputs":[{"name":"","type":"bytes32","internalType":"bytes32"}],"stateMutability":"view"},{"type":"function","name":"grantRealtorRole","inputs":[{"name":"realtor","type":"address","internalType":"address"}],"outputs":[],"stateMutability":"nonpayable"},{"type":"function","name":"grantRole","inputs":[{"name":"role","type":"bytes32","internalType":"bytes32"},{"name":"account","type":"address","internalType":"address"}],"outputs":[],"stateMutability":"nonpayable"},{"type":"function","name":"hasRole","inputs":[{"name":"role","type":"bytes32","internalType":"bytes32"},{"name":"account","type":"address","internalType":"address"}],"outputs":[{"name":"","type":"bool","internalType":"bool"}],"stateMutability":"view"},{"type":"function","name":"kycManager","inputs":[],"outputs":[{"name":"","type":"address","internalType":"contract IKYCManager"}],"stateMutability":"view"},{"type":"function","name":"listingFee","inputs":[],"outputs":[{"name":"","type":"uint256","internalType":"uint256"}],"stateMutability":"view"},{"type":"function","name":"priceFeed","inputs":[],"outputs":[{"name":"","type":"address","internalType":"contract AggregatorV3Interface"}],"stateMutability":"view"},{"type":"function","name":"properties","inputs":[{"name":"","type":"uint256","internalType":"uint256"}],"outputs":[{"name":"id","type":"uint256","internalType":"uint256"},{"name":"name","type":"string","internalType":"string"},{"name":"location","type":"string","internalType":"string"},{"name":"totalValue","type":"uint256","internalType":"uint256"},{"name":"tokenAddress","type":"address","internalType":"address"},{"name":"realtor","type":"address","internalType":"address"},{"name":"description","type":"string","internalType":"string"},{"name":"isActive","type":"bool","internalType":"bool"},{"name":"metadataURI","type":"string","internalType":"string"},{"name":"listedFee","type":"uint256","internalType":"uint256"},{"name":"pricePerToken","type":"uint256","internalType":"uint256"},{"name":"timestamp","type":"uint256","internalType":"uint256"},{"name":"realtorPropertyCount","type":"uint256","internalType":"uint256"},{"name":"tokenSupply","type":"uint256","internalType":"uint256"}],"stateMutability":"view"},{"type":"function","name":"propertyCounter","inputs":[],"outputs":[{"name":"","type":"uint256","internalType":"uint256"}],"stateMutability":"view"},{"type":"function","name":"realtorToProperties","inputs":[{"name":"","type":"address","internalType":"address"},{"name":"","type":"uint256","internalType":"uint256"}],"outputs":[{"name":"","type":"uint256","internalType":"uint256"}],"stateMutability":"view"},{"type":"function","name":"registerProperty","inputs":[{"name":"_name","type":"string","internalType":"string"},{"name":"_location","type":"string","internalType":"string"},{"name":"_totalValueUSD","type":"uint256","internalType":"uint256"},{"name":"_description","type":"string","internalType":"string"},{"name":"_pricePerTokenUSD","type":"uint256","internalType":"uint256"},{"name":"_metadataURI","type":"string","internalType":"string"}],"outputs":[],"stateMutability":"payable"},{"type":"function","name":"renounceRole","inputs":[{"name":"role","type":"bytes32","internalType":"bytes32"},{"name":"callerConfirmation","type":"address","internalType":"address"}],"outputs":[],"stateMutability":"nonpayable"},{"type":"function","name":"revokeRealtorRole","inputs":[{"name":"realtor","type":"address","internalType":"address"}],"outputs":[],"stateMutability":"nonpayable"},{"type":"function","name":"revokeRole","inputs":[{"name":"role","type":"bytes32","internalType":"bytes32"},{"name":"account","type":"address","internalType":"address"}],"outputs":[],"stateMutability":"nonpayable"},{"type":"function","name":"supportsInterface","inputs":[{"name":"interfaceId","type":"bytes4","internalType":"bytes4"}],"outputs":[{"name":"","type":"bool","internalType":"bool"}],"stateMutability":"view"},{"type":"function","name":"tokenFactory","inputs":[],"outputs":[{"name":"","type":"address","internalType":"contract ITokenFactory"}],"stateMutability":"view"},{"type":"function","name":"updateFeeRecipient","inputs":[{"name":"newRecipient","type":"address","internalType":"address"}],"outputs":[],"stateMutability":"nonpayable"},{"type":"function","name":"updatePropertyStatus","inputs":[{"name":"propertyId","type":"uint256","internalType":"uint256"},{"name":"_isActive","type":"bool","internalType":"bool"}],"outputs":[],"stateMutability":"nonpayable"},{"type":"function","name":"updateTokenFactory","inputs":[{"name":"newFactory","type":"address","internalType":"address"}],"outputs":[],"stateMutability":"nonpayable"},{"type":"function","name":"withdraw","inputs":[],"outputs":[],"stateMutability":"nonpayable"},{"type":"event","name":"FeeRecipientUpdated","inputs":[{"name":"newRecipient","type":"address","indexed":false,"internalType":"address"}],"anonymous":false},{"type":"event","name":"FeeTransferred","inputs":[{"name":"recipient","type":"address","indexed":true,"internalType":"address"},{"name":"amount","type":"uint256","indexed":false,"internalType":"uint256"}],"anonymous":false},{"type":"event","name":"PropertyDeactivated","inputs":[{"name":"propertyId","type":"uint256","indexed":true,"internalType":"uint256"}],"anonymous":false},{"type":"event","name":"PropertyRegistered","inputs":[{"name":"propertyId","type":"uint256","indexed":true,"internalType":"uint256"},{"name":"realtor","type":"address","indexed":true,"internalType":"address"},{"name":"name","type":"string","indexed":false,"internalType":"string"},{"name":"description","type":"string","indexed":false,"internalType":"string"},{"name":"listedFee","type":"uint256","indexed":false,"internalType":"uint256"},{"name":"metadataURI","type":"string","indexed":false,"internalType":"string"},{"name":"timestamp","type":"uint256","indexed":false,"internalType":"uint256"}],"anonymous":false},{"type":"event","name":"PropertyStatusUpdated","inputs":[{"name":"propertyId","type":"uint256","indexed":true,"internalType":"uint256"},{"name":"isActive","type":"bool","indexed":false,"internalType":"bool"}],"anonymous":false},{"type":"event","name":"RealtorPropertyCount","inputs":[{"name":"realtor","type":"address","indexed":true,"internalType":"address"},{"name":"totalProperties","type":"uint256","indexed":false,"internalType":"uint256"}],"anonymous":false},{"type":"event","name":"RealtorPropertyUpdated","inputs":[{"name":"realtor","type":"address","indexed":true,"internalType":"address"},{"name":"newPropertyId","type":"uint256","indexed":false,"internalType":"uint256"},{"name":"propertyIds","type":"uint256[]","indexed":false,"internalType":"uint256[]"}],"anonymous":false},{"type":"event","name":"RoleAdminChanged","inputs":[{"name":"role","type":"bytes32","indexed":true,"internalType":"bytes32"},{"name":"previousAdminRole","type":"bytes32","indexed":true,"internalType":"bytes32"},{"name":"newAdminRole","type":"bytes32","indexed":true,"internalType":"bytes32"}],"anonymous":false},{"type":"event","name":"RoleGranted","inputs":[{"name":"role","type":"bytes32","indexed":true,"internalType":"bytes32"},{"name":"account","type":"address","indexed":true,"internalType":"address"},{"name":"sender","type":"address","indexed":true,"internalType":"address"}],"anonymous":false},{"type":"event","name":"RoleRevoked","inputs":[{"name":"role","type":"bytes32","indexed":true,"internalType":"bytes32"},{"name":"account","type":"address","indexed":true,"internalType":"address"},{"name":"sender","type":"address","indexed":true,"internalType":"address"}],"anonymous":false},{"type":"event","name":"TokenFactoryUpdated","inputs":[{"name":"newFactory","type":"address","indexed":false,"internalType":"address"}],"anonymous":false},{"type":"event","name":"TokenLinked","inputs":[{"name":"propertyId","type":"uint256","indexed":true,"internalType":"uint256"},{"name":"tokenAddress","type":"address","indexed":false,"internalType":"address"}],"anonymous":false},{"type":"error","name":"AccessControlBadConfirmation","inputs":[]},{"type":"error","name":"AccessControlUnauthorizedAccount","inputs":[{"name":"account","type":"address","internalType":"address"},{"name":"neededRole","type":"bytes32","internalType":"bytes32"}]}],"bytecode":{"object":"0x6080346200018557601f62002b6b38819003918201601f19168301916001600160401b03831184841017620001895780849260c09460405283398101031262000185576200004d816200019d565b6200005b602083016200019d565b9060408301519262000070606082016200019d565b93620000986200009160a062000089608086016200019d565b94016200019d565b93620001b2565b506001600160a01b039384169485156200014057849160018060a01b03199687600354161760035560025516908115620000fb57839185600154161760015516836004541617600455169060085416176008556040516129169081620002358239f35b60405162461bcd60e51b815260206004820152601560248201527f496e76616c69642066656520726563697069656e7400000000000000000000006044820152606490fd5b60405162461bcd60e51b815260206004820152601560248201527f496e76616c696420746f6b656e20666163746f727900000000000000000000006044820152606490fd5b5f80fd5b634e487b7160e01b5f52604160045260245ffd5b51906001600160a01b03821682036200018557565b6001600160a01b03165f8181525f8051602062002b4b833981519152602052604090205460ff166200022f575f8181525f8051602062002b4b83398151915260205260408120805460ff191660011790553391907f2f8788117e7eff1d82e926ec794901d17c78024a50270940304540a733656f0d8180a4600190565b505f9056fe6080806040526004361015610012575f80fd5b5f3560e01c90816301ffc9a714611c345750806316853d8214611c0b578063189f079d14611b98578063248a9ca314611b6c578063277c560414611b035780632f2ff15d14611ac757806332665ffb14611a5e57806336568abe14611a175780633ccfd60b146119a15780633d51402c14611884578063469048401461185c5780636795cb74146117ae5780636a1b7ecc146117915780636b574cb11461176a578063741bef1a146117425780637afea44f1461171a5780637ca28bc6146116a357806391d148541461165b5780639c0c891f14611541578063a217fddf14611527578063bb0cf0421461042e578063cb1cdcb7146103c5578063d090e47e146103a8578063d547741f1461036a578063e77772fe14610342578063f160d369146102cf578063f7b10808146101ab5763f99f843b14610150575f80fd5b346101a75760403660031901126101a757610169611c87565b6001600160a01b03165f908152600760205260409020805460243591908210156101a75760209161019991611f27565b90546040519160031b1c8152f35b5f80fd5b346101a75760203660031901126101a7576004355f52600660205260405f208054600182016101d990611e85565b916101e660028201611e85565b6003820154600483015460058401549193916001600160a01b03918216911661021160068401611e85565b600784015460ff1661022560088601611e85565b91600986015497600a87015494600b88015496600c89015498600d0154996040519d8e9d8e6101c09181528160208201520161026091611cd4565b8d810360408f015261027191611cd4565b9260608d015260808c015260a08b015289810360c08b015261029291611cd4565b90151560e08901528781036101008901526102ac91611cd4565b946101208701526101408601526101608501526101808401526101a08301520390f35b346101a75760203660031901126101a7577f7a7b5a0a132f9e0581eb8527f66eae9ee89c2a3e79d4ac7e41a1f1f4d48a7fc2602061030b611c87565b61031361224b565b6001600160a01b0316610327811515611f50565b600180546001600160a01b03191682179055604051908152a1005b346101a7575f3660031901126101a7576003546040516001600160a01b039091168152602090f35b346101a75760403660031901126101a7576103a6600435610389611c9d565b90805f525f6020526103a1600160405f2001546122a1565b61248a565b005b346101a7575f3660031901126101a7576020600554604051908152f35b346101a75760203660031901126101a7576103a66103e1611c87565b6103e961224b565b5f805160206128c18339815191525f9081526020527fd3bd826235847243d71533afdf6528969dc0755c13a1ca32f80ba2e4b2da7a4954610429906122a1565b6122e0565b60c03660031901126101a7576004356001600160401b0381116101a757610459903690600401611dc8565b6024356001600160401b0381116101a757610478903690600401611dc8565b9290916064356001600160401b0381116101a75761049a903690600401611dc8565b909160a4356001600160401b0381116101a7576104bb903690600401611dc8565b335f9081527fd3bd826235847243d71533afdf6528969dc0755c13a1ca32f80ba2e4b2da7a486020526040902054909491929060ff16156114e2576008546040516373bed91960e11b815233600482015290602090829060249082906001600160a01b03165afa908115611137575f916114a7575b501561146f576044351561142b5780156113e65761054e85846124fc565b156113aa5761c35060443510156112d85760056084350361127e575b604435600f6044350204600f036107705760048054604051633fabe5a360e21b81529160a09183919082906001600160a01b03165afa908115611137575f91611231575b505f8113156111fc57670de0b6b3a7640000906064600f6044350204808302819004831490151715610770576a52b7d2dcc80cd2e40000006064600f604435020490810292028083046305f5e10014901517156107705761060e9161213c565b34106111b7575f8080803460018060a01b03600154165af13d156111b2573d6106368161215a565b906106446040519283611e64565b81525f60203d92013e5b156111775760018060a01b03600154167f34e8a84e537ed93d93ddf39a78816dcbc74df8397c635838b8cc973d4fa943f86020604051348152a261069360055461211a565b93846005556106a3368389612175565b956106ae8751612576565b975f9a5f5b895181108061116d575b156107db576106cc818b6125a8565b516001600160f81b0319811690600360fc1b821015806107cd575b80156107b0575b8015610793575b61070a575b50506107059061211a565b6106b3565b909d90606160f81b8f10158f81610784575b50610742575b5061072c8161211a565b9d5f1a9061073a908d6125a8565b538d806106fa565b909d5060ff601f198260f81c01116107705760f890811c601f1901901b6001600160f81b0319169c8e610722565b634e487b7160e01b5f52601160045260245ffd5b603d60f91b101590508f61071c565b50606160f81b82108015906106f55750603d60f91b8211156106f5565b50604160f81b82108015906106ee5750602d60f91b8211156106ee565b50603960f81b8211156106e7565b508995969798508a8c6107ed81612576565b975f5b828110611142575050506108038a6126bf565b966040519788916020830164425249434b60d81b90528051908160258501916020019161082f92611cb3565b82018151918260258301916020019161084792611cb3565b010360058101885260250161085c9088611e64565b610867368785612175565b906108718b612759565b9160405192839160208301650213934b1b5960d51b90528051908160268501916020019161089e92611cb3565b82016026810161202360f01b9052815191826028830191602001916108c292611cb3565b01036008810183526028016108d79083611e64565b6108e56084356044356121cb565b60035490926001600160a01b03909116906108ff8d6125b9565b60405180916020820164425249434b60d81b90528051908160258401916020019161092992611cb3565b81010360058101825260250161093f9082611e64565b6040516369b2919960e01b815260c060048201529a8b92839261096660c485018e8c6121ab565b84810360031901602486015261097b91611cd4565b87604485015260031984820301606485015261099691611cd4565b8281036003190160848401526109ab91611cd4565b3360a483015203815a6020945f91f1978815611137575f986110f3575b50335f52600760205260405f205460018101811161077057610a0e6001928d95604051966109f588611e2d565b8752610a02368c8a612175565b60208801523691612175565b60408501526044356060850152818060a01b03891660808501523360a0850152610a3936888c612175565b60c08501528160e0850152610a4f36878d612175565b6101008501526064600f604435020461012085015260843561014085015242610160850152016101808301526101a0820152885f52600660205260405f20908051825560208101518051906001600160401b038211610dc3578190610ab76001860154611df5565b601f81116110a3575b50602090601f8311600114611035575f9261102a575b50508160011b915f199060031b1c19161760018301555b60408101518051906001600160401b038211610dc3578190610b126002860154611df5565b601f8111610fda575b50602090601f8311600114610f6c575f92610f61575b50508160011b915f199060031b1c19161760028301555b6060810151600383015560808101516004830180546001600160a01b039283166001600160a01b03199182161790915560a083015160058501805491909316911617905560c08101518051906001600160401b038211610dc3578190610bb16006860154611df5565b601f8111610f11575b50602090601f8311600114610ea3575f92610e98575b50508160011b915f199060031b1c19161760068301555b610c0660e08201511515600784019060ff801983541691151516179055565b6101008101518051906001600160401b038211610dc357610c2a6008850154611df5565b601f8111610e54575b50602090601f8311600114610de2579180600d94926101a0945f92610dd7575b50508160011b915f199060031b1c19161760088501555b6101208101516009850155610140810151600a850155610160810151600b850155610180810151600c8501550151910155335f52600760205260405f209687549268010000000000000000841015610dc357610d506020988b96610d43610d6c96610d1d897f0aa2c2832157bf7958a2d2f929753dd967867ad049164c2884e4783c48d4a1fa9f60017f7eb4ae85cdfae415590eaae2df52318a01820722a52e85175a4df61a793084fc9c018155611f27565b81549060031b908c821b915f19901b19161790556040519a60a08c5260a08c01916121ab565b918983038c8b01526121ab565b916064600f6044350204604088015286830360608801526121ab565b924260808201528033940390a3335f526007825260405f20546040519081527fd7dbd08b345131d2dca6b7a5cd2f8756ecca5f19f415186f8e6bfe4dce3d676d833392a26040516001600160a01b039091168152a2005b634e487b7160e01b5f52604160045260245ffd5b015190508e80610c53565b90600885015f5260205f20915f5b601f1985168110610e3c575092600d94926001926101a09583601f19811610610e24575b505050811b016008850155610c6a565b01515f1960f88460031b161c191690558e8080610e14565b91926020600181928685015181550194019201610df0565b600885015f5260205f20601f840160051c810160208510610e91575b601f830160051c82018110610e86575050610c33565b5f8155600101610e70565b5080610e70565b015190508c80610bd0565b9250600685015f5260205f20905f935b601f1984168510610ef6576001945083601f19811610610ede575b505050811b016006830155610be7565b01515f1960f88460031b161c191690558c8080610ece565b81810151835560209485019460019093019290910190610eb3565b909150600685015f5260205f20601f840160051c810160208510610f5a575b90849392915b601f830160051c82018110610f4c575050610bba565b5f8155859450600101610f36565b5080610f30565b015190508c80610b31565b9250600285015f5260205f20905f935b601f1984168510610fbf576001945083601f19811610610fa7575b505050811b016002830155610b48565b01515f1960f88460031b161c191690558c8080610f97565b81810151835560209485019460019093019290910190610f7c565b909150600285015f5260205f20601f840160051c810160208510611023575b90849392915b601f830160051c82018110611015575050610b1b565b5f8155859450600101610fff565b5080610ff9565b015190508c80610ad6565b9250600185015f5260205f20905f935b601f1984168510611088576001945083601f19811610611070575b505050811b016001830155610aed565b01515f1960f88460031b161c191690558c8080611060565b81810151835560209485019460019093019290910190611045565b909150600185015f5260205f20601f840160051c8101602085106110ec575b90849392915b601f830160051c820181106110de575050610ac0565b5f81558594506001016110c8565b50806110c2565b9097506020813d60201161112f575b8161110f60209383611e64565b810103126101a757516001600160a01b03811681036101a757968b6109c8565b3d9150611102565b6040513d5f823e3d90fd5b6001906001600160f81b031961115882856125a8565b51165f1a611166828d6125a8565b53016107f0565b5060088d106106bd565b60405162461bcd60e51b8152602060048201526013602482015272119959481d1c985b9cd9995c8819985a5b1959606a1b6044820152606490fd5b61064e565b60405162461bcd60e51b815260206004820152601860248201527f496e73756666696369656e74206c697374696e672066656500000000000000006044820152606490fd5b60405162461bcd60e51b815260206004820152600d60248201526c496e76616c696420707269636560981b6044820152606490fd5b905060a0813d60a011611276575b8161124c60a09383611e64565b810103126101a75761125d816126a8565b5061126f6080602083015192016126a8565b50896105ae565b3d915061123f565b60405162461bcd60e51b815260206004820152602c60248201527f546f6b656e207072696365206d75737420626520243520666f722070726f706560448201526b7274696573203c202435306b60a01b6064820152608490fd5b620249f06044351161134357600a608435031561056a5760405162461bcd60e51b815260206004820152602660248201527f546f6b656e207072696365206d7573742062652024313020666f72202435306b6044820152652d243135306b60d01b6064820152608490fd5b6014608435031561056a5760405162461bcd60e51b815260206004820152602e60248201527f546f6b656e207072696365206d7573742062652024323020666f722070726f7060448201526d657274696573203e20243135306b60901b6064820152608490fd5b60405162461bcd60e51b8152602060048201526014602482015273496e76616c6964206d657461646174612055524960601b6044820152606490fd5b60405162461bcd60e51b815260206004820152601960248201527f50726f7065727479206e616d65206973207265717569726564000000000000006044820152606490fd5b606460405162461bcd60e51b815260206004820152602060248201527f546f74616c2070726f70657274792076616c7565206d757374206265203e20306044820152fd5b60405162461bcd60e51b815260206004820152601060248201526f12d650c81b9bdd08185c1c1c9bdd995960821b6044820152606490fd5b90506020813d6020116114da575b816114c260209383611e64565b810103126101a7575180151581036101a75789610530565b3d91506114b5565b60405162461bcd60e51b815260206004820152601c60248201527f4e6f7420617574686f72697a65643a205265616c746f72206f6e6c79000000006044820152606490fd5b346101a7575f3660031901126101a75760206040515f8152f35b346101a75760403660031901126101a757600435602435801515908181036101a7578215158061164f575b61157590611ff8565b825f52600660205260405f209160018060a01b0360058401541633148015611618575b156115e2576115d960209260077fa3d44d1d4e082efa8adf548ff411647ffe25d72842a3f0e6a73a209306153ed595019060ff801983541691151516179055565b604051908152a2005b60405162461bcd60e51b815260206004820152600e60248201526d139bdd08185d5d1a1bdc9a5e995960921b6044820152606490fd5b50335f9081527fad3228b676f7d3cd4284a5443f17f1962b36e491b30a40b2405849e597ba5fb5602052604090205460ff16611598565b5060055483111561156c565b346101a75760403660031901126101a757611674611c9d565b6004355f525f60205260405f209060018060a01b03165f52602052602060ff60405f2054166040519015158152f35b346101a75760203660031901126101a7576004356116bf61224b565b8015158061170e575b6116d190611ff8565b805f526006602052600760405f200160ff1981541690557f7bc5467b3abd536b298666c57448e8ec6a25e7929f01a0789e4ef525716f45e35f80a2005b506005548111156116c8565b346101a7575f3660031901126101a7576008546040516001600160a01b039091168152602090f35b346101a7575f3660031901126101a7576004546040516001600160a01b039091168152602090f35b346101a7575f3660031901126101a75760206040515f805160206128c18339815191528152f35b346101a7575f3660031901126101a7576020600254604051908152f35b346101a7576020806003193601126101a7576001600160a01b036117d0611c87565b165f526007815260405f20604051908183825491828152019081925f52845f20905f5b8682821061184857868661180982880383611e64565b60405192839281840190828552518091526040840192915f5b82811061183157505050500390f35b835185528695509381019392810192600101611822565b8354855290930192600192830192016117f3565b346101a7575f3660031901126101a7576001546040516001600160a01b039091168152602090f35b346101a7575f3660031901126101a7576005546118a081612103565b906118ae6040519283611e64565b8082526118ba81612103565b60209190601f19015f5b81811061198557505060019060015b8181111561193b57505060405191808301818452845180915260408401918060408360051b8701019601925f905b83821061190e5786880387f35b9091929394838061192a839a603f198b82030186528951611cf9565b999701959493919091019101611901565b805f959395526006845260405f20905f198101918183116107705761197d926119666119779261203a565b6119708288612128565b5285612128565b5061211a565b9391936118d3565b8390611992959395611f8e565b828286010152019391936118c4565b346101a7575f3660031901126101a7576119b961224b565b4780156119dd576001545f918291829182916001600160a01b031682f11561113757005b60405162461bcd60e51b81526020600482015260126024820152714e6f2045544820746f20776974686472617760701b6044820152606490fd5b346101a75760403660031901126101a757611a30611c9d565b336001600160a01b03821603611a4c576103a69060043561248a565b60405163334bd91960e11b8152600490fd5b346101a75760203660031901126101a757600435611a7a611f8e565b5080151580611abb575b611a8d90611ff8565b5f526006602052611ab7611aa360405f2061203a565b604051918291602083526020830190611cf9565b0390f35b50600554811115611a84565b346101a75760403660031901126101a7576103a6600435611ae6611c9d565b90805f525f602052611afe600160405f2001546122a1565b61237e565b346101a75760203660031901126101a7576103a6611b1f611c87565b611b2761224b565b5f805160206128c18339815191525f9081526020527fd3bd826235847243d71533afdf6528969dc0755c13a1ca32f80ba2e4b2da7a4954611b67906122a1565b6123f4565b346101a75760203660031901126101a7576004355f525f6020526020600160405f200154604051908152f35b346101a75760203660031901126101a7577f06d64f41e0c8bfe9eab59ac2d4e14dadfeee426e0ce29bcda6d82a5bf1a1c1cf6020611bd4611c87565b611bdc61224b565b6001600160a01b0316611bf0811515611f50565b600380546001600160a01b03191682179055604051908152a1005b346101a75760403660031901126101a7576020611c2c6024356004356121cb565b604051908152f35b346101a75760203660031901126101a7576004359063ffffffff60e01b82168092036101a757602091637965db0b60e01b8114908115611c76575b5015158152f35b6301ffc9a760e01b14905083611c6f565b600435906001600160a01b03821682036101a757565b602435906001600160a01b03821682036101a757565b5f5b838110611cc45750505f910152565b8181015183820152602001611cb5565b90602091611ced81518092818552858086019101611cb3565b601f01601f1916010190565b90611d8e611d6e611d33611d216101c086518652602087015190806020880152860190611cd4565b60408601518582036040870152611cd4565b60608501516060850152608085015160018060a01b03809116608086015260a08601511660a085015260c085015184820360c0860152611cd4565b60e0840151151560e0840152610100808501519084830390850152611cd4565b9161012080820151908301526101408082015190830152610160808201519083015261018080820151908301526101a08091015191015290565b9181601f840112156101a7578235916001600160401b0383116101a757602083818601950101116101a757565b90600182811c92168015611e23575b6020831014611e0f57565b634e487b7160e01b5f52602260045260245ffd5b91607f1691611e04565b6101c081019081106001600160401b03821117610dc357604052565b604081019081106001600160401b03821117610dc357604052565b90601f801991011681019081106001600160401b03821117610dc357604052565b9060405191825f8254611e9781611df5565b908184526020946001916001811690815f14611f055750600114611ec7575b505050611ec592500383611e64565b565b5f90815285812095935091905b818310611eed575050611ec593508201015f8080611eb6565b85548884018501529485019487945091830191611ed4565b92505050611ec594925060ff191682840152151560051b8201015f8080611eb6565b8054821015611f3c575f5260205f2001905f90565b634e487b7160e01b5f52603260045260245ffd5b15611f5757565b60405162461bcd60e51b815260206004820152600f60248201526e496e76616c6964206164647265737360881b6044820152606490fd5b60405190611f9b82611e2d565b5f6101a08382815260606020820152606060408201528260608201528260808201528260a0820152606060c08201528260e08201526060610100820152826101208201528261014082015282610160820152826101808201520152565b15611fff57565b60405162461bcd60e51b8152602060048201526013602482015272125b9d985b1a59081c1c9bdc195c9d1e481251606a1b6044820152606490fd5b9060405161204781611e2d565b6101a0600d82948054845261205e60018201611e85565b602085015261206f60028201611e85565b60408501526003810154606085015260048101546001600160a01b03908116608086015260058201541660a08501526120aa60068201611e85565b60c085015260ff600782015416151560e08501526120ca60088201611e85565b6101008501526009810154610120850152600a810154610140850152600b810154610160850152600c8101546101808501520154910152565b6001600160401b038111610dc35760051b60200190565b5f1981146107705760010190565b8051821015611f3c5760209160051b010190565b8115612146570490565b634e487b7160e01b5f52601260045260245ffd5b6001600160401b038111610dc357601f01601f191660200190565b9291926121818261215a565b9161218f6040519384611e64565b8294818452818301116101a7578281602093845f960137010152565b908060209392818452848401375f828201840152601f01601f1916010190565b9080156121f857670de0b6b3a764000091828102928184041490151715610770576121f59161213c565b90565b60405162461bcd60e51b815260206004820152602560248201527f546f6b656e207072696365206d7573742062652067726561746572207468616e604482015264207a65726f60d81b6064820152608490fd5b335f9081527fad3228b676f7d3cd4284a5443f17f1962b36e491b30a40b2405849e597ba5fb5602052604090205460ff161561228357565b60405163e2517d3f60e01b81523360048201525f6024820152604490fd5b805f525f60205260405f20335f5260205260ff60405f205416156122c25750565b6044906040519063e2517d3f60e01b82523360048301526024820152fd5b6001600160a01b03165f8181527fd3bd826235847243d71533afdf6528969dc0755c13a1ca32f80ba2e4b2da7a4860205260409020545f805160206128c1833981519152919060ff1661237857815f525f60205260405f20815f5260205260405f20600160ff1982541617905533917f2f8788117e7eff1d82e926ec794901d17c78024a50270940304540a733656f0d5f80a4600190565b50505f90565b90815f525f60205260405f209060018060a01b031690815f5260205260ff60405f205416155f1461237857815f525f60205260405f20815f5260205260405f20600160ff1982541617905533917f2f8788117e7eff1d82e926ec794901d17c78024a50270940304540a733656f0d5f80a4600190565b6001600160a01b03165f8181527fd3bd826235847243d71533afdf6528969dc0755c13a1ca32f80ba2e4b2da7a4860205260409020545f805160206128c1833981519152919060ff161561237857815f525f60205260405f20815f5260205260405f2060ff19815416905533917ff6391f5c32d9c69d2a47ea670b442974b53935d1edc7fd64eb21e047a839171b5f80a4600190565b90815f525f60205260405f209060018060a01b031690815f5260205260ff60405f2054165f1461237857815f525f60205260405f20815f5260205260405f2060ff19815416905533917ff6391f5c32d9c69d2a47ea670b442974b53935d1edc7fd64eb21e047a839171b5f80a4600190565b612507913691612175565b60098151106125715760405161251c81611e49565b6007815266697066733a2f2f60c81b602082015261255b6040519161254083611e49565b600883526768747470733a2f2f60c01b602084015283612654565b91821561256757505090565b6121f59250612654565b505f90565b906125808261215a565b61258d6040519182611e64565b828152809261259e601f199161215a565b0190602036910137565b908151811015611f3c570160200190565b801561263657805f81805b61261e57506125d281612576565b925b6125dd57505090565b5f198101908111610770578091600a91603083830681018091116107705760f81b6001600160f81b0319165f1a9061261590866125a8565b530490816125d4565b915061262b600a9161211a565b9104808392916125c4565b5060405161264381611e49565b60018152600360fc1b602082015290565b908151815111612378575f5b81518110156126a0576001600160f81b03198061267d83866125a8565b51169061268a83856125a8565b51160361269957600101612660565b5050505f90565b505050600190565b519069ffffffffffffffffffff821682036101a757565b600a811061271857606481106126d8576121f590612759565b6126e190612759565b6121f560216040518093600360fc1b60208301526127088151809260208686019101611cb3565b8101036001810184520182611e64565b61272190612759565b6121f56022604051809361030360f41b60208301526127498151809260208686019101611cb3565b8101036002810184520182611e64565b805f917a184f03e93ff9f4daa797ed6e38ed64bf6a1f010000000000000000808210156128b2575b506d04ee2d6d415b85acef8100000000808310156128a3575b50662386f26fc1000080831015612894575b506305f5e10080831015612885575b5061271080831015612876575b506064821015612866575b600a8092101561285c575b60019081602160018601956127f28761215a565b966128006040519889611e64565b80885261280f601f199161215a565b01366020890137860101905b612827575b5050505090565b5f19019083906f181899199a1a9b1b9c1cb0b131b232b360811b8282061a8353049182156128575791908261281b565b612820565b91600101916127de565b91906064600291049101916127d3565b6004919392049101915f6127c8565b6008919392049101915f6127bb565b6010919392049101915f6127ac565b6020919392049101915f61279a565b60409350810491505f61278156fef962acfbab8ce8b5063e7eb2e741d447f857c50333efedc97d59cbe8bac576e1a26469706673582212208549bdcbe465b58c945ab178e3b38d23811063ff340c39a4db2202d2347c490464736f6c63430008180033ad3228b676f7d3cd4284a5443f17f1962b36e491b30a40b2405849e597ba5fb5","linkReferences":{}},"methodIdentifiers":{"DEFAULT_ADMIN_ROLE()":"a217fddf","REALTOR_ROLE()":"6b574cb1","calculateTokenSupply(uint256,uint256)":"16853d82","deactivateProperty(uint256)":"7ca28bc6","feeRecipient()":"46904840","getAllProperties()":"3d51402c","getPropertiesByRealtor(address)":"6795cb74","getProperty(uint256)":"32665ffb","getRoleAdmin(bytes32)":"248a9ca3","grantRealtorRole(address)":"cb1cdcb7","grantRole(bytes32,address)":"2f2ff15d","hasRole(bytes32,address)":"91d14854","kycManager()":"7afea44f","listingFee()":"6a1b7ecc","priceFeed()":"741bef1a","properties(uint256)":"f7b10808","propertyCounter()":"d090e47e","realtorToProperties(address,uint256)":"f99f843b","registerProperty(string,string,uint256,string,uint256,string)":"bb0cf042","renounceRole(bytes32,address)":"36568abe","revokeRealtorRole(address)":"277c5604","revokeRole(bytes32,address)":"d547741f","supportsInterface(bytes4)":"01ffc9a7","tokenFactory()":"e77772fe","updateFeeRecipient(address)":"f160d369","updatePropertyStatus(uint256,bool)":"9c0c891f","updateTokenFactory(address)":"189f079d","withdraw()":"3ccfd60b"},"id":39}