{"abi":[{"type":"constructor","inputs":[{"name":"name","type":"string","internalType":"string"},{"name":"symbol","type":"string","internalType":"string"},{"name":"totalSupply","type":"uint256","internalType":"uint256"},{"name":"tokenName","type":"string","internalType":"string"},{"name":"tokenSymbol","type":"string","internalType":"string"},{"name":"owner","type":"address","internalType":"address"}],"stateMutability":"nonpayable"},{"type":"function","name":"allowance","inputs":[{"name":"owner","type":"address","internalType":"address"},{"name":"spender","type":"address","internalType":"address"}],"outputs":[{"name":"","type":"uint256","internalType":"uint256"}],"stateMutability":"view"},{"type":"function","name":"approve","inputs":[{"name":"spender","type":"address","internalType":"address"},{"name":"value","type":"uint256","internalType":"uint256"}],"outputs":[{"name":"","type":"bool","internalType":"bool"}],"stateMutability":"nonpayable"},{"type":"function","name":"balanceOf","inputs":[{"name":"account","type":"address","internalType":"address"}],"outputs":[{"name":"","type":"uint256","internalType":"uint256"}],"stateMutability":"view"},{"type":"function","name":"decimals","inputs":[],"outputs":[{"name":"","type":"uint8","internalType":"uint8"}],"stateMutability":"view"},{"type":"function","name":"name","inputs":[],"outputs":[{"name":"","type":"string","internalType":"string"}],"stateMutability":"view"},{"type":"function","name":"propertyName","inputs":[],"outputs":[{"name":"","type":"string","internalType":"string"}],"stateMutability":"view"},{"type":"function","name":"propertySymbol","inputs":[],"outputs":[{"name":"","type":"string","internalType":"string"}],"stateMutability":"view"},{"type":"function","name":"symbol","inputs":[],"outputs":[{"name":"","type":"string","internalType":"string"}],"stateMutability":"view"},{"type":"function","name":"totalSupply","inputs":[],"outputs":[{"name":"","type":"uint256","internalType":"uint256"}],"stateMutability":"view"},{"type":"function","name":"transfer","inputs":[{"name":"to","type":"address","internalType":"address"},{"name":"value","type":"uint256","internalType":"uint256"}],"outputs":[{"name":"","type":"bool","internalType":"bool"}],"stateMutability":"nonpayable"},{"type":"function","name":"transferFrom","inputs":[{"name":"from","type":"address","internalType":"address"},{"name":"to","type":"address","internalType":"address"},{"name":"value","type":"uint256","internalType":"uint256"}],"outputs":[{"name":"","type":"bool","internalType":"bool"}],"stateMutability":"nonpayable"},{"type":"event","name":"Approval","inputs":[{"name":"owner","type":"address","indexed":true,"internalType":"address"},{"name":"spender","type":"address","indexed":true,"internalType":"address"},{"name":"value","type":"uint256","indexed":false,"internalType":"uint256"}],"anonymous":false},{"type":"event","name":"Transfer","inputs":[{"name":"from","type":"address","indexed":true,"internalType":"address"},{"name":"to","type":"address","indexed":true,"internalType":"address"},{"name":"value","type":"uint256","indexed":false,"internalType":"uint256"}],"anonymous":false},{"type":"error","name":"ERC20InsufficientAllowance","inputs":[{"name":"spender","type":"address","internalType":"address"},{"name":"allowance","type":"uint256","internalType":"uint256"},{"name":"needed","type":"uint256","internalType":"uint256"}]},{"type":"error","name":"ERC20InsufficientBalance","inputs":[{"name":"sender","type":"address","internalType":"address"},{"name":"balance","type":"uint256","internalType":"uint256"},{"name":"needed","type":"uint256","internalType":"uint256"}]},{"type":"error","name":"ERC20InvalidApprover","inputs":[{"name":"approver","type":"address","internalType":"address"}]},{"type":"error","name":"ERC20InvalidReceiver","inputs":[{"name":"receiver","type":"address","internalType":"address"}]},{"type":"error","name":"ERC20InvalidSender","inputs":[{"name":"sender","type":"address","internalType":"address"}]},{"type":"error","name":"ERC20InvalidSpender","inputs":[{"name":"spender","type":"address","internalType":"address"}]}],"bytecode":{"object":"0x604060808152346200066f5762000f59803803806200001e8162000673565b928339810160c0828203126200066f5781516001600160401b0392908381116200066f57826200005091830162000699565b90602092838201518581116200066f57816200006e91840162000699565b94868301519360608401518281116200066f57836200008f91860162000699565b9260808501518381116200066f5760a091620000ad91870162000699565b9401516001600160a01b03811697908890036200066f5783519083821162000575576003928354926001968785811c9516801562000664575b8b861014620006505781908b601f96878111620005fa575b50508b9086831160011462000595575f9262000589575b50505f1982871b1c191690871b1784555b8651858111620005755760049788548881811c911680156200056a575b8c8210146200047257908b828785941162000514575b50508b90868311600114620004af575f92620004a3575b50505f1982871b1c191690871b1787555b8051858111620004905760059182548881811c9116801562000485575b8c8210146200047257908b82878594116200041e575b50508b90868311600114620003b9575f92620003ad575b50505f1982871b1c191690871b1781555b81519485116200039a57600654908682811c921680156200038f575b8a8310146200037c5783821162000335575b505087918411600114620002cc579383949184925f95620002c0575b50501b925f19911b1c1916176006555b8315620002aa57600254908282018092116200029757506002555f8381528083528481208054830190558451918252917fddf252ad1be2c89b69c2b068fc378daa952ba7f163c4a11628f55a4df523b3ef91a35161084f90816200070a8239f35b601190634e487b7160e01b5f525260245ffd5b6024905f86519163ec442f0560e01b8352820152fd5b015193505f8062000226565b9190601f1984169260065f5284895f20945f5b8b898383106200031d575050501062000303575b50505050811b0160065562000236565b01519060f8845f19921b161c191690555f808080620002f3565b868601518955909701969485019488935001620002df565b60065f52895f209084808801821c8301938c891062000372575b01901c019086905b8281106200036657506200020a565b5f815501869062000357565b935082936200034f565b602288634e487b7160e01b5f525260245ffd5b91607f1691620001f8565b604187634e487b7160e01b5f525260245ffd5b015190505f80620001cb565b5f8581528d81208b9550929190601f198516908f5b828210620004065750508411620003ee575b505050811b018155620001dc565b01515f1983891b60f8161c191690555f8080620003e0565b8385015186558d979095019493840193018f620003ce565b90919250845f5286825f2091818601871c830193861062000468575b918b918695949301871c01915b8281106200045957508d9150620001b4565b5f81558594508b910162000447565b925081926200043a565b60228a634e487b7160e01b5f525260245ffd5b90607f16906200019e565b604188634e487b7160e01b5f525260245ffd5b015190505f8062000170565b5f8b81528d81208b9550929190601f198516908f5b828210620004fc5750508411620004e4575b505050811b01875562000181565b01515f1983891b60f8161c191690555f8080620004d6565b8385015186558d979095019493840193018f620004c4565b909192508a5f5286825f209181860160051c830193861062000560575b918b91869594930160051c01915b8281106200055157508d915062000159565b5f81558594508b91016200053f565b9250819262000531565b90607f169062000143565b634e487b7160e01b5f52604160045260245ffd5b015190505f8062000115565b5f8881528d81208b9550929190601f198516908f5b828210620005e25750508411620005ca575b505050811b01845562000126565b01515f1983891b60f8161c191690555f8080620005bc565b8385015186558d979095019493840193018f620005aa565b90919250875f5286825f209181860160051c830193861062000646575b918b91869594930160051c01915b8281106200063757508d9150620000fe565b5f81558594508b910162000625565b9250819262000617565b634e487b7160e01b5f52602260045260245ffd5b94607f1694620000e6565b5f80fd5b6040519190601f01601f191682016001600160401b038111838210176200057557604052565b919080601f840112156200066f5782516001600160401b0381116200057557602090620006cf601f8201601f1916830162000673565b928184528282870101116200066f575f5b818110620006f55750825f9394955001015290565b8581018301518482018401528201620006e056fe6080604081815260049182361015610015575f80fd5b5f3560e01c90816306fdde03146105f257508063095ea7b31461054a57806318160ddd1461052c57806323b872dd1461043a5780632c35c08c1461035f578063313ce5671461034457806370a082311461030e57806395d89b4114610236578063a9059cbb14610206578063dd62ed3e146101bd5763e0ed5cd114610098575f80fd5b346101b9575f3660031901126101b9578051905f60065460018160011c90600183169283156101af575b602093848410811461019c57838852908115610180575060011461012a575b505050829003601f01601f191682019267ffffffffffffffff84118385101761011757508291826101139252826106cc565b0390f35b604190634e487b7160e01b5f525260245ffd5b60065f908152929350837ff652222313e28459528d920b65115c16c04f3efc82aaedc97be59f3f377c0d3f5b83851061016c57505050508301015f80806100e1565b805488860183015293019284908201610156565b60ff1916878501525050151560051b84010190505f80806100e1565b602289634e487b7160e01b5f525260245ffd5b91607f16916100c2565b5f80fd5b50346101b957806003193601126101b9576020906101d9610713565b6101e1610729565b9060018060a01b038091165f5260018452825f2091165f528252805f20549051908152f35b50346101b957806003193601126101b95760209061022f610225610713565b602435903361073f565b5160018152f35b50346101b9575f3660031901126101b9578051905f835460018160011c9060018316928315610304575b602093848410811461019c5783885290811561018057506001146102b057505050829003601f01601f191682019267ffffffffffffffff84118385101761011757508291826101139252826106cc565b5f878152929350837f8a35acfbc15ff81a39ae7d344fd709f28e8600b4aa8c65c6b64bfe7fe36bd19b5b8385106102f057505050508301015f80806100e1565b8054888601830152930192849082016102da565b91607f1691610260565b50346101b95760203660031901126101b9576020906001600160a01b03610333610713565b165f525f8252805f20549051908152f35b50346101b9575f3660031901126101b9576020905160128152f35b50346101b9575f3660031901126101b9578051905f60055460018160011c9060018316928315610430575b602093848410811461019c5783885290811561018057506001146103da57505050829003601f01601f191682019267ffffffffffffffff84118385101761011757508291826101139252826106cc565b60055f908152929350837f036b6384b5eca791c62761152d0c79bb0604c104a5fb6f4eb0703f3154bb3db05b83851061041c57505050508301015f80806100e1565b805488860183015293019284908201610406565b91607f169161038a565b5090346101b95760603660031901126101b957610455610713565b61045d610729565b906044359260018060a01b038216805f526001602052855f20335f52602052855f2054915f198310610498575b60208761022f88888861073f565b8583106105005781156104ea5733156104d457505f9081526001602090815286822033835281529086902091859003909155829061022f61048a565b6024905f885191634a1406b160e11b8352820152fd5b6024905f88519163e602df0560e01b8352820152fd5b8651637dc7a0d960e11b8152339181019182526020820193909352604081018690528291506060010390fd5b50346101b9575f3660031901126101b9576020906002549051908152f35b50346101b957806003193601126101b957610563610713565b6024359033156105dc576001600160a01b03169081156105c65760209350335f5260018452825f20825f52845280835f205582519081527f8c5be1e5ebec7d5bd14f71427d1e84f3dd0314c0f7b2291e5b200ac8c7c3b925843392a35160018152f35b8251634a1406b160e11b81525f81860152602490fd5b825163e602df0560e01b81525f81860152602490fd5b919050346101b9575f3660031901126101b9575f60035460018160011c90600183169283156106c2575b602093848410811461019c57838852908115610180575060011461066c57505050829003601f01601f191682019267ffffffffffffffff84118385101761011757508291826101139252826106cc565b60035f908152929350837fc2575a0e9e593c00f959f8c92f12db2869c3395a3b0502d05e2516446f71f85b5b8385106106ae57505050508301015f80806100e1565b805488860183015293019284908201610698565b91607f169161061c565b602080825282518183018190529093925f5b8281106106ff57505060409293505f838284010152601f8019910116010190565b8181018601518482016040015285016106de565b600435906001600160a01b03821682036101b957565b602435906001600160a01b03821682036101b957565b916001600160a01b0380841692831561080157169283156107e957825f525f60205260405f2054908282106107b75750817fddf252ad1be2c89b69c2b068fc378daa952ba7f163c4a11628f55a4df523b3ef92602092855f525f84520360405f2055845f5260405f20818154019055604051908152a3565b60405163391434e360e21b81526001600160a01b03919091166004820152602481019190915260448101829052606490fd5b60405163ec442f0560e01b81525f6004820152602490fd5b604051634b637e8f60e11b81525f6004820152602490fdfea2646970667358221220acbc645af87b3ad9d5e0bff9d381d5658e05903ce801c1f37ecaa16322a99a4664736f6c63430008180033","linkReferences":{}},"methodIdentifiers":{"allowance(address,address)":"dd62ed3e","approve(address,uint256)":"095ea7b3","balanceOf(address)":"70a08231","decimals()":"313ce567","name()":"06fdde03","propertyName()":"2c35c08c","propertySymbol()":"e0ed5cd1","symbol()":"95d89b41","totalSupply()":"18160ddd","transfer(address,uint256)":"a9059cbb","transferFrom(address,address,uint256)":"23b872dd"},"id":46}