{"abi":[{"type":"constructor","inputs":[{"name":"admin","type":"address","internalType":"address"}],"stateMutability":"nonpayable"},{"type":"function","name":"ADMIN_ROLE","inputs":[],"outputs":[{"name":"","type":"bytes32","internalType":"bytes32"}],"stateMutability":"view"},{"type":"function","name":"AUDITOR_ROLE","inputs":[],"outputs":[{"name":"","type":"bytes32","internalType":"bytes32"}],"stateMutability":"view"},{"type":"function","name":"DEFAULT_ADMIN_ROLE","inputs":[],"outputs":[{"name":"","type":"bytes32","internalType":"bytes32"}],"stateMutability":"view"},{"type":"function","name":"INVESTOR_ROLE","inputs":[],"outputs":[{"name":"","type":"bytes32","internalType":"bytes32"}],"stateMutability":"view"},{"type":"function","name":"REALTOR_ROLE","inputs":[],"outputs":[{"name":"","type":"bytes32","internalType":"bytes32"}],"stateMutability":"view"},{"type":"function","name":"TENANT_ROLE","inputs":[],"outputs":[{"name":"","type":"bytes32","internalType":"bytes32"}],"stateMutability":"view"},{"type":"function","name":"approveKYC","inputs":[{"name":"realtor","type":"address","internalType":"address"}],"outputs":[],"stateMutability":"nonpayable"},{"type":"function","name":"batchApproveKYC","inputs":[{"name":"realtors","type":"address[]","internalType":"address[]"}],"outputs":[],"stateMutability":"nonpayable"},{"type":"function","name":"batchRejectKYC","inputs":[{"name":"realtors","type":"address[]","internalType":"address[]"}],"outputs":[],"stateMutability":"nonpayable"},{"type":"function","name":"blacklist","inputs":[{"name":"user","type":"address","internalType":"address"},{"name":"status","type":"bool","internalType":"bool"}],"outputs":[],"stateMutability":"nonpayable"},{"type":"function","name":"getKYCData","inputs":[{"name":"realtor","type":"address","internalType":"address"}],"outputs":[{"name":"","type":"tuple","internalType":"struct KYCManager.KYCData","components":[{"name":"name","type":"string","internalType":"string"},{"name":"email","type":"string","internalType":"string"},{"name":"nin","type":"string","internalType":"string"},{"name":"phone","type":"string","internalType":"string"},{"name":"submittedAt","type":"uint256","internalType":"uint256"},{"name":"status","type":"uint8","internalType":"enum KYCManager.KYCStatus"}]}],"stateMutability":"view"},{"type":"function","name":"getKYCStatus","inputs":[{"name":"realtor","type":"address","internalType":"address"}],"outputs":[{"name":"","type":"uint8","internalType":"enum KYCManager.KYCStatus"}],"stateMutability":"view"},{"type":"function","name":"getRoleAdmin","inputs":[{"name":"role","type":"bytes32","internalType":"bytes32"}],"outputs":[{"name":"","type":"bytes32","internalType":"bytes32"}],"stateMutability":"view"},{"type":"function","name":"grantPropertyPermission","inputs":[{"name":"propertyId","type":"uint256","internalType":"uint256"},{"name":"user","type":"address","internalType":"address"}],"outputs":[],"stateMutability":"nonpayable"},{"type":"function","name":"grantRole","inputs":[{"name":"role","type":"bytes32","internalType":"bytes32"},{"name":"account","type":"address","internalType":"address"}],"outputs":[],"stateMutability":"nonpayable"},{"type":"function","name":"hasAccessToProperty","inputs":[{"name":"propertyId","type":"uint256","internalType":"uint256"},{"name":"user","type":"address","internalType":"address"}],"outputs":[{"name":"","type":"bool","internalType":"bool"}],"stateMutability":"view"},{"type":"function","name":"hasRole","inputs":[{"name":"role","type":"bytes32","internalType":"bytes32"},{"name":"account","type":"address","internalType":"address"}],"outputs":[{"name":"","type":"bool","internalType":"bool"}],"stateMutability":"view"},{"type":"function","name":"hasRoleAndKYC","inputs":[{"name":"user","type":"address","internalType":"address"},{"name":"role","type":"bytes32","internalType":"bytes32"}],"outputs":[{"name":"","type":"bool","internalType":"bool"}],"stateMutability":"view"},{"type":"function","name":"isBlacklisted","inputs":[{"name":"","type":"address","internalType":"address"}],"outputs":[{"name":"","type":"bool","internalType":"bool"}],"stateMutability":"view"},{"type":"function","name":"isKYCApproved","inputs":[{"name":"realtor","type":"address","internalType":"address"}],"outputs":[{"name":"","type":"bool","internalType":"bool"}],"stateMutability":"view"},{"type":"function","name":"isKYCVerified","inputs":[{"name":"","type":"address","internalType":"address"}],"outputs":[{"name":"","type":"bool","internalType":"bool"}],"stateMutability":"view"},{"type":"function","name":"isWhitelistedIP","inputs":[{"name":"","type":"bytes32","internalType":"bytes32"}],"outputs":[{"name":"","type":"bool","internalType":"bool"}],"stateMutability":"view"},{"type":"function","name":"pause","inputs":[],"outputs":[],"stateMutability":"nonpayable"},{"type":"function","name":"paused","inputs":[],"outputs":[{"name":"","type":"bool","internalType":"bool"}],"stateMutability":"view"},{"type":"function","name":"propertyPermissions","inputs":[{"name":"","type":"uint256","internalType":"uint256"},{"name":"","type":"address","internalType":"address"}],"outputs":[{"name":"","type":"bool","internalType":"bool"}],"stateMutability":"view"},{"type":"function","name":"realtorKYC","inputs":[{"name":"","type":"address","internalType":"address"}],"outputs":[{"name":"name","type":"string","internalType":"string"},{"name":"email","type":"string","internalType":"string"},{"name":"nin","type":"string","internalType":"string"},{"name":"phone","type":"string","internalType":"string"},{"name":"submittedAt","type":"uint256","internalType":"uint256"},{"name":"status","type":"uint8","internalType":"enum KYCManager.KYCStatus"}],"stateMutability":"view"},{"type":"function","name":"rejectKYC","inputs":[{"name":"realtor","type":"address","internalType":"address"}],"outputs":[],"stateMutability":"nonpayable"},{"type":"function","name":"renounceRole","inputs":[{"name":"role","type":"bytes32","internalType":"bytes32"},{"name":"callerConfirmation","type":"address","internalType":"address"}],"outputs":[],"stateMutability":"nonpayable"},{"type":"function","name":"revokePropertyPermission","inputs":[{"name":"propertyId","type":"uint256","internalType":"uint256"},{"name":"user","type":"address","internalType":"address"}],"outputs":[],"stateMutability":"nonpayable"},{"type":"function","name":"revokeRole","inputs":[{"name":"role","type":"bytes32","internalType":"bytes32"},{"name":"account","type":"address","internalType":"address"}],"outputs":[],"stateMutability":"nonpayable"},{"type":"function","name":"roleExpiries","inputs":[{"name":"","type":"address","internalType":"address"},{"name":"","type":"bytes32","internalType":"bytes32"}],"outputs":[{"name":"expiryTimestamp","type":"uint256","internalType":"uint256"},{"name":"enabled","type":"bool","internalType":"bool"}],"stateMutability":"view"},{"type":"function","name":"roleValid","inputs":[{"name":"user","type":"address","internalType":"address"},{"name":"role","type":"bytes32","internalType":"bytes32"}],"outputs":[{"name":"","type":"bool","internalType":"bool"}],"stateMutability":"view"},{"type":"function","name":"setKYC","inputs":[{"name":"user","type":"address","internalType":"address"},{"name":"status","type":"bool","internalType":"bool"}],"outputs":[],"stateMutability":"nonpayable"},{"type":"function","name":"setTimeLimitedRole","inputs":[{"name":"user","type":"address","internalType":"address"},{"name":"role","type":"bytes32","internalType":"bytes32"},{"name":"duration","type":"uint256","internalType":"uint256"}],"outputs":[],"stateMutability":"nonpayable"},{"type":"function","name":"submitKYC","inputs":[{"name":"name","type":"string","internalType":"string"},{"name":"email","type":"string","internalType":"string"},{"name":"nin","type":"string","internalType":"string"},{"name":"phone","type":"string","internalType":"string"}],"outputs":[],"stateMutability":"nonpayable"},{"type":"function","name":"supportsInterface","inputs":[{"name":"interfaceId","type":"bytes4","internalType":"bytes4"}],"outputs":[{"name":"","type":"bool","internalType":"bool"}],"stateMutability":"view"},{"type":"function","name":"unpause","inputs":[],"outputs":[],"stateMutability":"nonpayable"},{"type":"function","name":"whitelistIP","inputs":[{"name":"ipHash","type":"bytes32","internalType":"bytes32"},{"name":"status","type":"bool","internalType":"bool"}],"outputs":[],"stateMutability":"nonpayable"},{"type":"event","name":"KYCApproved","inputs":[{"name":"realtor","type":"address","indexed":true,"internalType":"address"},{"name":"approvedAt","type":"uint256","indexed":false,"internalType":"uint256"}],"anonymous":false},{"type":"event","name":"KYCRejected","inputs":[{"name":"realtor","type":"address","indexed":true,"internalType":"address"},{"name":"rejectedAt","type":"uint256","indexed":false,"internalType":"uint256"}],"anonymous":false},{"type":"event","name":"KYCSubmitted","inputs":[{"name":"realtor","type":"address","indexed":true,"internalType":"address"},{"name":"submittedAt","type":"uint256","indexed":false,"internalType":"uint256"}],"anonymous":false},{"type":"event","name":"Paused","inputs":[{"name":"account","type":"address","indexed":false,"internalType":"address"}],"anonymous":false},{"type":"event","name":"RoleAdminChanged","inputs":[{"name":"role","type":"bytes32","indexed":true,"internalType":"bytes32"},{"name":"previousAdminRole","type":"bytes32","indexed":true,"internalType":"bytes32"},{"name":"newAdminRole","type":"bytes32","indexed":true,"internalType":"bytes32"}],"anonymous":false},{"type":"event","name":"RoleGranted","inputs":[{"name":"role","type":"bytes32","indexed":true,"internalType":"bytes32"},{"name":"account","type":"address","indexed":true,"internalType":"address"},{"name":"sender","type":"address","indexed":true,"internalType":"address"}],"anonymous":false},{"type":"event","name":"RoleRevoked","inputs":[{"name":"role","type":"bytes32","indexed":true,"internalType":"bytes32"},{"name":"account","type":"address","indexed":true,"internalType":"address"},{"name":"sender","type":"address","indexed":true,"internalType":"address"}],"anonymous":false},{"type":"event","name":"Unpaused","inputs":[{"name":"account","type":"address","indexed":false,"internalType":"address"}],"anonymous":false},{"type":"error","name":"AccessControlBadConfirmation","inputs":[]},{"type":"error","name":"AccessControlUnauthorizedAccount","inputs":[{"name":"account","type":"address","internalType":"address"},{"name":"neededRole","type":"bytes32","internalType":"bytes32"}]},{"type":"error","name":"EnforcedPause","inputs":[]},{"type":"error","name":"ExpectedPause","inputs":[]}],"bytecode":{"object":"0x6080346200007c57601f620020e838819003918201601f19168301916001600160401b0383118484101762000080578084926020946040528339810103126200007c57516001600160a01b03811681036200007c5780620000646200006b9262000094565b5062000104565b50604051611f039081620001a58239f35b5f80fd5b634e487b7160e01b5f52604160045260245ffd5b6001600160a01b03165f8181525f80516020620020c8833981519152602052604090205460ff16620000ff575f8181525f80516020620020c883398151915260205260408120805460ff191660011790553391905f80516020620020a88339815191528180a4600190565b505f90565b6001600160a01b03165f8181527f7d7ffb7a348e1c6a02869081a26547b49160dd3df72d1d75a570eb9b698292ec60205260409020547fa49807205ce4d355092ef5a8a18f56e8913cf4a201fbe287825b095693c21775919060ff166200019e57815f525f60205260405f20815f5260205260405f20600160ff1982541617905533915f80516020620020a88339815191525f80a4600190565b50505f9056fe6080806040526004361015610012575f80fd5b5f3560e01c9081620c8df0146118515750806301ffc9a7146117fb5780630669ce79146117ac5780630e27324d1461160457806312815d7a146115d3578063248a9ca3146115a75780632f2ff15d1461157057806331e786cf1461154157806336568abe146114fa5780633f4ba83a14611491578063404e5129146114405780634c6b0f18146113ee5780635123bacc1461133f578063543ceaed146112aa57806354b7636e1461126d5780635c975abb1461124b5780636b574cb1146112115780636e1d616e146111ea57806375b238fc146111b057806376082a5e146111765780637efa9bc3146110d55780638456cb591461106957806391d14854146110215780639875ea2b14610fe75780639df38a6814610f20578063a217fddf14610f06578063ab47a2f914610db9578063b91590b514610d70578063bfdf29bf14610d70578063c42e588814610c90578063cb0b61f514610b01578063cdb63286146109e2578063d547741f146109a6578063dc442f1014610954578063e3d784f6146102a2578063e77db23214610243578063f1565560146101fe5763fe575a87146101bd575f80fd5b346101fa5760203660031901126101fa576001600160a01b036101de611892565b165f526003602052602060ff60405f2054166040519015158152f35b5f80fd5b346101fa5760403660031901126101fa5761024161021a6118cb565b610222611c98565b6004355f52600460205260405f209060ff801983541691151516179055565b005b346101fa5760203660031901126101fa576001600160a01b03610264611892565b165f52600760205260ff600560405f20015416600481101561028e57602090600260405191148152f35b634e487b7160e01b5f52602160045260245ffd5b346101fa5760803660031901126101fa576004356001600160401b0381116101fa576102d2903690600401611aa9565b9060249081356001600160401b0381116101fa576102f4903690600401611aa9565b906044356001600160401b0381116101fa57610314903690600401611aa9565b9190926064356001600160401b0381116101fa57610336903690600401611aa9565b959097335f52600760205260ff600560405f2001541660048110156109415715801561091c575b156108ce5761039f9361038399969361038a6103ab999794610393946040519d8e611941565b3691611bda565b8b523691611bda565b60208901523691611bda565b60408601523691611bda565b6060830152426080830152600160a0830152335f52600760205260405f2082519283516001600160401b0381116108bb576103e683546118da565b601f811161087a575b506020601f82116001146108155781929394955f9261080a575b50508160011b915f199060031b1c19161782555b60208101519283516001600160401b0381116107f65761044060018501546118da565b601f81116107b2575b506020601f82116001146107475781929394955f9261073c575b50508160011b915f199060031b1c19161760018401555b60408201519283516001600160401b0381116107295761049d60028301546118da565b601f81116106e1575b506020601f82116001146106765781929394955f9261066b575b50508160011b915f199060031b1c19161760028201555b6003810160608401518051906001600160401b038211610658576104fb83546118da565b601f8111610613575b50602090601f83116001146105a95791806005949260a096945f9261059e575b50508160011b915f199060031b1c19161790555b608085015160048201550192015190600482101561058b575060ff801983541691161790556040514281527f2c3dea8db96f9d4588bb336e6b5c792bfaa97ca6516c306e794475618794252260203392a2005b634e487b7160e01b5f9081526021600452fd5b015190508880610524565b90601f19831691845f5260205f20925f5b8181106105fb575092600192859260a0989660059896106105e3575b505050811b019055610538565b01515f1960f88460031b161c191690558880806105d6565b929360206001819287860151815501950193016105ba565b835f5260205f20601f840160051c8101916020851061064e575b601f0160051c01905b8181106106435750610504565b5f8155600101610636565b909150819061062d565b84634e487b7160e01b5f5260416004525ffd5b0151905085806104c0565b600283015f5260205f20905f5b601f19841681106106c9575060019394959683601f198116106106b1575b505050811b0160028201556104d7565b01515f1960f88460031b161c191690558580806106a1565b9091602060018192858b015181550193019101610683565b600283015f5260205f20601f830160051c8101916020841061071f575b601f0160051c01905b81811061071457506104a6565b5f8155600101610707565b90915081906106fe565b82634e487b7160e01b5f5260416004525ffd5b015190508580610463565b600185015f5260205f20905f5b601f198416811061079a575060019394959683601f19811610610782575b505050811b01600184015561047a565b01515f1960f88460031b161c19169055858080610772565b9091602060018192858b015181550193019101610754565b600185015f5260205f20601f830160051c8101602084106107ef575b601f830160051c820181106107e4575050610449565b5f81556001016107ce565b50806107ce565b50634e487b7160e01b5f9081526041600452fd5b015190508580610409565b835f5260205f20905f5b601f1984168110610862575060019394959683601f1981161061084a575b505050811b01825561041d565b01515f1960f88460031b161c1916905585808061083d565b9091602060018192858b01518155019301910161081f565b835f5260205f20601f830160051c8101602084106108b4575b601f830160051c820181106108a95750506103ef565b5f8155600101610893565b5080610893565b83634e487b7160e01b5f5260416004525ffd5b60405162461bcd60e51b8152602060048201526021818a01527f4b594320616c7265616479207375626d6974746564206f7220617070726f76656044820152601960fa1b6064820152608490fd5b50335f52600760205260ff600560405f2001541660048110156109415760031461035d565b88634e487b7160e01b5f5260216004525ffd5b346101fa5760403660031901126101fa576001600160a01b03610975611892565b165f52600560205260405f206024355f526020526040805f2060ff6001825492015416825191825215156020820152f35b346101fa5760403660031901126101fa576102416004356109c56118a8565b90805f525f6020526109dd600160405f200154611cf3565b611e3b565b346101fa576109f036611a5d565b335f9081527fad3228b676f7d3cd4284a5443f17f1962b36e491b30a40b2405849e597ba5fb5602090815260409091205460ff939084168015610ad6575b610a3790611ad6565b5f5b838110610a4257005b6001600160a01b03610a5d610a58838786611ba2565b611bc6565b1690815f526007918285526005878160405f2001541693600485101561028e576001809514610a90575b50505001610a39565b825f52865260405f2001600360ff198254161790557f185a96a5f38bc3caccbe757ddff1b2f0a4e81df451234f7debc657cefdf0aaa385604051428152a2868080610a87565b505f80516020611eae8339815191525f9081528083526040808220338352845290205460ff16610a2e565b346101fa57610b0f36611a5d565b335f9081527fad3228b676f7d3cd4284a5443f17f1962b36e491b30a40b2405849e597ba5fb5602090815260409091205460ff939084168015610c65575b610b5690611ad6565b5f5b838110610b6157005b610b6f610a58828685611ba2565b9060018060a01b038216805f526007808652600593888560405f20015416600481101561028e5760011480610c43575b80610c09575b94600195610bb8575b5050505001610b58565b610bd692845f52885260405f2001600260ff19825416179055611d14565b507f7d703e0176062815e9b5eb604dcb13ff19f9b207e8a8392ba477def9741f125785604051428152a286808080610bae565b50825f52818752600460405f20015494620151808601809611610c2f5794421015610ba5565b634e487b7160e01b5f52601160045260245ffd5b50825f52818752888560405f20015416600481101561028e5760021415610b9f565b505f80516020611eae8339815191525f9081528083526040808220338352845290205460ff16610b4d565b346101fa576020806003193601126101fa57610caa611892565b5f80525f825260405f20335f52825260ff60405f2054168015610d45575b610cd190611ad6565b60018060a01b031690815f526007815260ff600560405f2001541690600482101561028e57610d2360017f185a96a5f38bc3caccbe757ddff1b2f0a4e81df451234f7debc657cefdf0aaa39314611b19565b825f5260078152600560405f2001600360ff19825416179055604051428152a2005b505f80516020611eae8339815191525f9081528083526040808220338352845290205460ff16610cc8565b346101fa5760403660031901126101fa57610d896118a8565b6004355f52600660205260405f209060018060a01b03165f52602052602060ff60405f2054166040519015158152f35b346101fa576020806003193601126101fa57610dd3611892565b9060405191610de183611941565b5f60a060609485815285858201528560408201528580820152826080820152015260018060a01b03165f526007815260405f2060405192610e2184611941565b610e2a8261197d565b8452610e386001830161197d565b838501908152610e4a6002840161197d565b9460408101958652610e5e6003850161197d565b83820190815260ff6005600487015496608085019788520154169260a0830193600481101561028e5760c098610f0296610ece610eb8610ef097610edf958a526040519d8d8f9e928f9384525192015260e08d0190611a1f565b9451601f198c8703810160408e01529590611a1f565b915190848b840301908b0152611a1f565b915190878303016080880152611a1f565b925160a08501525160c08401906118be565b0390f35b346101fa575f3660031901126101fa5760206040515f8152f35b346101fa5760203660031901126101fa576001600160a01b03610f41611892565b165f526007602052610fad60405f20610f598161197d565b90610f02610f696001830161197d565b610fd7610f786002850161197d565b610fc9610f876003870161197d565b91610fbb60ff600560048a015499015416956040519a8b9a60c08c5260c08c0190611a1f565b908a820360208c0152611a1f565b9088820360408a0152611a1f565b908682036060880152611a1f565b92608085015260a08401906118be565b346101fa575f3660031901126101fa5760206040517f183424541d14cd9bd5d5e4d92b46028be6700d27ec9e3ecc10cbe3e71dea50a58152f35b346101fa5760403660031901126101fa5761103a6118a8565b6004355f525f60205260405f209060018060a01b03165f52602052602060ff60405f2054166040519015158152f35b346101fa575f3660031901126101fa57611081611c98565b60015460ff81166110c35760019060ff1916176001557f62e78cea01bee320cd4e420270b5ea74000d11b0c9f74754ebdbfc544b05a2586020604051338152a1005b60405163d93c066560e01b8152600490fd5b346101fa5760603660031901126101fa576110ee611892565b602435906110fa611c98565b604435420191824211610c2f5761115d610241936040519061111b82611912565b8152600160208201818152818060a01b0386165f52600560205260405f20855f5260205260405f209251835551151591019060ff801983541691151516179055565b5f602052611171600160405f200154611cf3565b611dc5565b346101fa575f3660031901126101fa5760206040517fb165298935924f540e4181c03493a5d686c54a0aaeb3f6216de85b7ffbba77388152f35b346101fa575f3660031901126101fa5760206040517fa49807205ce4d355092ef5a8a18f56e8913cf4a201fbe287825b095693c217758152f35b346101fa575f3660031901126101fa5760206040515f80516020611eae8339815191528152f35b346101fa575f3660031901126101fa5760206040517ff962acfbab8ce8b5063e7eb2e741d447f857c50333efedc97d59cbe8bac576e18152f35b346101fa575f3660031901126101fa57602060ff600154166040519015158152f35b346101fa5760203660031901126101fa576001600160a01b0361128e611892565b165f526002602052602060ff60405f2054166040519015158152f35b346101fa5760403660031901126101fa5760206112c5611892565b6024355f81815280845260408082206001600160a01b0385168352855290205460ff16918261132c575b82611318575b82611307575b50506040519015158152f35b6113119250611b53565b82806112fb565b6003845260405f205460ff161592506112f5565b6002845260405f205460ff1692506112ef565b346101fa5760403660031901126101fa57611358611892565b6113606118cb565b335f9081527f0d2d6a5d08cb5d871289c0a3ca855d9da72909a111c24cce2d5c2b34a20daa5460205260409020545f80516020611eae833981519152929060ff16156113cf57610241925060018060a01b03165f52600260205260405f209060ff801983541691151516179055565b60405163e2517d3f60e01b815233600482015260248101849052604490fd5b346101fa5760403660031901126101fa576114076118a8565b61140f611c1f565b6004355f9081526006602090815260408083206001600160a01b03909416835292905220805460ff19166001179055005b346101fa5760403660031901126101fa5761024161145c611892565b6114646118cb565b9061146d611c98565b60018060a01b03165f52600360205260405f209060ff801983541691151516179055565b346101fa575f3660031901126101fa576114a9611c98565b60015460ff8116156114e85760ff19166001557f5db9ee0a495bf2e6ff9c91a7834c1ba4fdd244a5e8aa4e537bd38aeae4b073aa6020604051338152a1005b604051638dfc202b60e01b8152600490fd5b346101fa5760403660031901126101fa576115136118a8565b336001600160a01b0382160361152f5761024190600435611e3b565b60405163334bd91960e11b8152600490fd5b346101fa5760203660031901126101fa576004355f526004602052602060ff60405f2054166040519015158152f35b346101fa5760403660031901126101fa5761024160043561158f6118a8565b90805f525f602052611171600160405f200154611cf3565b346101fa5760203660031901126101fa576004355f525f6020526020600160405f200154604051908152f35b346101fa5760403660031901126101fa5760206115fa6115f1611892565b60243590611b53565b6040519015158152f35b346101fa576020806003193601126101fa5761161e611892565b905f80525f815260405f20335f52815260ff60405f2054168015611781575b61164690611ad6565b6001600160a01b0382165f81815260078352604090206005015490929060ff16600481101561028e5760021461174957825f526007825260ff600560405f20015416600481101561028e57600161169d9114611b19565b825f5260078252600460405f200154620151808101809111610c2f57421061170d57906117037f7d703e0176062815e9b5eb604dcb13ff19f9b207e8a8392ba477def9741f125792845f5260078352600560405f2001600260ff19825416179055611d14565b50604051428152a2005b60405162461bcd60e51b815260048101839052601460248201527357616974203234687273206166746572204b594360601b6044820152606490fd5b60405162461bcd60e51b815260048101839052601060248201526f105b1c9958591e48185c1c1c9bdd995960821b6044820152606490fd5b505f80516020611eae8339815191525f9081528082526040808220338352835290205460ff1661163d565b346101fa5760403660031901126101fa576117c56118a8565b6117cd611c1f565b6004355f9081526006602090815260408083206001600160a01b03909416835292905220805460ff19169055005b346101fa5760203660031901126101fa5760043563ffffffff60e01b81168091036101fa57602090637965db0b60e01b8114908115611840575b506040519015158152f35b6301ffc9a760e01b14905082611835565b346101fa5760203660031901126101fa576020906001600160a01b03611875611892565b165f52600782526118908160ff600560405f200154166118be565bf35b600435906001600160a01b03821682036101fa57565b602435906001600160a01b03821682036101fa57565b90600482101561028e5752565b6024359081151582036101fa57565b90600182811c92168015611908575b60208310146118f457565b634e487b7160e01b5f52602260045260245ffd5b91607f16916118e9565b604081019081106001600160401b0382111761192d57604052565b634e487b7160e01b5f52604160045260245ffd5b60c081019081106001600160401b0382111761192d57604052565b90601f801991011681019081106001600160401b0382111761192d57604052565b9060405191825f825461198f816118da565b908184526020946001916001811690815f146119fd57506001146119bf575b5050506119bd9250038361195c565b565b5f90815285812095935091905b8183106119e55750506119bd93508201015f80806119ae565b855488840185015294850194879450918301916119cc565b925050506119bd94925060ff191682840152151560051b8201015f80806119ae565b91908251928382525f5b848110611a49575050825f602080949584010152601f8019910116010190565b602081830181015184830182015201611a29565b9060206003198301126101fa576004356001600160401b03928382116101fa57806023830112156101fa5781600401359384116101fa5760248460051b830101116101fa576024019190565b9181601f840112156101fa578235916001600160401b0383116101fa57602083818601950101116101fa57565b15611add57565b60405162461bcd60e51b81526020600482015260146024820152732737ba1030b236b4b71037b91030bab234ba37b960611b6044820152606490fd5b15611b2057565b60405162461bcd60e51b815260206004820152600b60248201526a4e6f742070656e64696e6760a81b6044820152606490fd5b60018060a01b03165f52600560205260405f20905f5260205260405f20604051611b7c81611912565b60ff6001835493848452015416159060208215910152611b9c5742111590565b50600190565b9190811015611bb25760051b0190565b634e487b7160e01b5f52603260045260245ffd5b356001600160a01b03811681036101fa5790565b9291926001600160401b03821161192d5760405191611c03601f8201601f19166020018461195c565b8294818452818301116101fa578281602093845f960137010152565b335f9081527fd3bd826235847243d71533afdf6528969dc0755c13a1ca32f80ba2e4b2da7a4860205260409020547ff962acfbab8ce8b5063e7eb2e741d447f857c50333efedc97d59cbe8bac576e19060ff1615611c7a5750565b6044906040519063e2517d3f60e01b82523360048301526024820152fd5b335f9081527f7d7ffb7a348e1c6a02869081a26547b49160dd3df72d1d75a570eb9b698292ec60205260409020547fa49807205ce4d355092ef5a8a18f56e8913cf4a201fbe287825b095693c217759060ff1615611c7a5750565b805f525f60205260405f20335f5260205260ff60405f20541615611c7a5750565b6001600160a01b03165f8181527fd3bd826235847243d71533afdf6528969dc0755c13a1ca32f80ba2e4b2da7a4860205260409020547ff962acfbab8ce8b5063e7eb2e741d447f857c50333efedc97d59cbe8bac576e1919060ff16611dbf57815f525f60205260405f20815f5260205260405f20600160ff1982541617905533917f2f8788117e7eff1d82e926ec794901d17c78024a50270940304540a733656f0d5f80a4600190565b50505f90565b90815f525f60205260405f209060018060a01b031690815f5260205260ff60405f205416155f14611dbf57815f525f60205260405f20815f5260205260405f20600160ff1982541617905533917f2f8788117e7eff1d82e926ec794901d17c78024a50270940304540a733656f0d5f80a4600190565b90815f525f60205260405f209060018060a01b031690815f5260205260ff60405f2054165f14611dbf57815f525f60205260405f20815f5260205260405f2060ff19815416905533917ff6391f5c32d9c69d2a47ea670b442974b53935d1edc7fd64eb21e047a839171b5f80a460019056fe59a1c48e5837ad7a7f3dcedcbe129bf3249ec4fbf651fd4f5e2600ead39fe2f5a26469706673582212207d50a1306d2287f10f7b4974bed3d09b78507a60a27f4992d391d87de103ff5e64736f6c634300081800332f8788117e7eff1d82e926ec794901d17c78024a50270940304540a733656f0dad3228b676f7d3cd4284a5443f17f1962b36e491b30a40b2405849e597ba5fb5","linkReferences":{}},"methodIdentifiers":{"ADMIN_ROLE()":"75b238fc","AUDITOR_ROLE()":"6e1d616e","DEFAULT_ADMIN_ROLE()":"a217fddf","INVESTOR_ROLE()":"76082a5e","REALTOR_ROLE()":"6b574cb1","TENANT_ROLE()":"9875ea2b","approveKYC(address)":"0e27324d","batchApproveKYC(address[])":"cb0b61f5","batchRejectKYC(address[])":"cdb63286","blacklist(address,bool)":"404e5129","getKYCData(address)":"ab47a2f9","getKYCStatus(address)":"000c8df0","getRoleAdmin(bytes32)":"248a9ca3","grantPropertyPermission(uint256,address)":"4c6b0f18","grantRole(bytes32,address)":"2f2ff15d","hasAccessToProperty(uint256,address)":"bfdf29bf","hasRole(bytes32,address)":"91d14854","hasRoleAndKYC(address,bytes32)":"543ceaed","isBlacklisted(address)":"fe575a87","isKYCApproved(address)":"e77db232","isKYCVerified(address)":"54b7636e","isWhitelistedIP(bytes32)":"31e786cf","pause()":"8456cb59","paused()":"5c975abb","propertyPermissions(uint256,address)":"b91590b5","realtorKYC(address)":"9df38a68","rejectKYC(address)":"c42e5888","renounceRole(bytes32,address)":"36568abe","revokePropertyPermission(uint256,address)":"0669ce79","revokeRole(bytes32,address)":"d547741f","roleExpiries(address,bytes32)":"dc442f10","roleValid(address,bytes32)":"12815d7a","setKYC(address,bool)":"5123bacc","setTimeLimitedRole(address,bytes32,uint256)":"7efa9bc3","submitKYC(string,string,string,string)":"e3d784f6","supportsInterface(bytes4)":"01ffc9a7","unpause()":"3f4ba83a","whitelistIP(bytes32,bool)":"f1565560"},"id":45}